:100000000C9461000C947E000C947E000C947E0095
:100010000C947E000C947E000C947E000C947E0068
:100020000C947E000C947E000C947E000C947E0058
:100030000C947E000C947E000C947E000C947E0048
:100040000C94EF010C947E000C947E000C947E00C6
:100050000C947E000C947E000C947E000C947E0028
:100060000C947E000C947E00000000002400270009
:100070002A0000000000250028002B0000000000DE
:1000800023002600290004040404040404040202DA
:100090000202020203030303030301020408102007
:1000A0004080010204081020010204081020000012
:1000B0000007000201000003040600000000000029
:1000C000000011241FBECFEFD8E0DEBFCDBF11E08E
:1000D000A0E0B1E0E8EBF5E002C005900D92A6319A
:1000E000B107D9F711E0A6E1B1E001C01D92AF312F
:1000F000B107E1F70E9497010C94DA020C9400001A
:10010000AF92BF92CF92DF92EF92FF920F931F9325
:10011000CF93DF938EE00E94E20000D000D0AA27A8
:1001200097FDA095BA2F2AE030E040E050E0EDB70F
:10013000FEB72183328343835483BC01CD0120E089
:1001400030E040E050E0EFEFEE2EE3E0FE2E012D38
:10015000112DAA24BB2465010E94A6017B01C0E0E9
:10016000D1E000E010E00F900F900F900F900E156F
:100170001F051CF4888161E002C0888160E00E9454
:1001800043010F5F1F4F22960A30110581F7DF915F
:10019000CF911F910F91FF90EF90DF90CF90BF9084
:1001A000AF900895CF93DF93C0E0D1E0888161E004
:1001B0000E940401229681E0C431D807B9F7DF918B
:1001C000CF910895982F8E3008F09E5097708091AF
:1001D00014018295880F880F807C892B80937C0086
:1001E00080917A00806480937A0080917A0086FD05
:1001F000FCCF2091780040917900942F80E030E08E
:10020000282B392BC9010895CF93DF93482F50E055
:10021000CA0186569F4FFC0134914A575F4FFA013D
:100220008491882369F190E0880F991FFC01E859B7
:10023000FF4FA591B491FC01EE58FF4FC591D491A9
:10024000662351F42FB7F8948C91932F90958923BE
:100250008C93888189230BC0623061F42FB7F894A6
:100260008C91932F909589238C938881832B8883FD
:100270002FBF06C09FB7F8948C91832B8C939FBFA0
:10028000DF91CF910895482F50E0CA0182559F4FCA
:10029000FC012491CA0186569F4FFC0194914A5754
:1002A0005F4FFA013491332309F440C0222351F106
:1002B000233071F0243028F42130A1F0223011F5E0
:1002C00014C02630B1F02730C1F02430D9F404C076
:1002D000809180008F7703C0809180008F7D809314
:1002E000800010C084B58F7702C084B58F7D84BD37
:1002F00009C08091B0008F7703C08091B0008F7DDE
:100300008093B000E32FF0E0EE0FFF1FEE58FF4F99
:10031000A591B4912FB7F894662321F48C91909510
:10032000892302C08C91892B8C932FBF0895CF9382
:10033000DF930E9443020E94D200C0E0D0E00E94FE
:1003400080002097E1F30E940000F9CF2F923F92A6
:100350004F925F926F927F928F929F92AF92BF92D5
:10036000CF92DF92EF92FF920F931F93DF93CF9381
:10037000CDB7DEB73B014C0119012A016D897E8999
:100380008F89988D6A197B098C099D09621A730AF5
:10039000840A950AA40193010E947E02E218F308E0
:1003A00004091509A80197010E949D022A0D3B1D11
:1003B0004C1D5D1DB901CA01CF91DF911F910F91B5
:1003C000FF90EF90DF90CF90BF90AF909F908F9075
:1003D0007F906F905F904F903F902F9008951F9265
:1003E0000F920FB60F9211242F933F934F935F9369
:1003F0006F937F938F939F93AF93BF9320911A0135
:1004000030911B0140911C0150911D0170911E0102
:10041000DA01C9010296A11DB11D672F6A5F6D3710
:1004200030F06D57DA01C9010396A11DB11D60932B
:100430001E0180931A0190931B01A0931C01B0939D
:100440001D018091160190911701A0911801B091A2
:1004500019010196A11DB11D8093160190931701FA
:10046000A0931801B0931901BF91AF919F918F9103
:100470007F916F915F914F913F912F910F900FBEA0
:100480000F901F901895789484B5826084BD84B5D0
:10049000816084BD85B5826085BD85B5816085BD7F
:1004A000EEE6F0E0808181608083E1E8F0E0108298
:1004B000808182608083808181608083E0E8F0E0D9
:1004C000808181608083E1EBF0E0808184608083C3
:1004D000E0EBF0E0808181608083EAE7F0E08081FA
:1004E000846080838081826080838081816080835A
:1004F0008081806880831092C1000895629FD0013E
:10050000739FF001829FE00DF11D649FE00DF11DCE
:10051000929FF00D839FF00D749FF00D659FF00D7D
:100520009927729FB00DE11DF91F639FB00DE11D6A
:10053000F91FBD01CF011124089597FB092E05264F
:100540000ED057FD04D014D00AD0001C38F45095BA
:100550004095309521953F4F4F4F5F4F0895F6F7E7
:1005600090958095709561957F4F8F4F9F4F08951F
:10057000A1E21A2EAA1BBB1BFD010DC0AA1FBB1FA7
:10058000EE1FFF1FA217B307E407F50720F0A21B19
:10059000B30BE40BF50B661F771F881F991F1A9486
:1005A00069F760957095809590959B01AC01BD01B0
:0805B000CF010895F894FFCF7C
:1005B8000200030004000500060007000800090007
:0605C8000A000B00010017
:00000001FF
